:020000040800F2
:10000000B807002029020008A915000849150008B2
:10001000A515000815040008D91E000800000000FE
:10002000000000000000000000000000851600082D
:100030001904000800000000E515000887160008F4
:10004000430200084302000843020008430200087C
:10005000430200084302000843020008430200086C
:10006000430200084302000843020008430200085C
:10007000430200084302000843020008430200084C
:10008000430200084302000843020008430200083C
:10009000430200084302000843020008430200082C
:1000A000430200084302000843020008430200081C
:1000B000430200084302000843020008430200080C
:1000C00043020008430200084302000843020008FC
:1000D00043020008391E00084302000843020008DA
:1000E00043020008430200084302000843020008DC
:1000F00043020008430200084302000843020008CC
:1001000043020008430200084302000843020008BB
:1001100043020008430200084302000843020008AB
:10012000430200084302000843020008430200089B
:10013000430200084302000843020008430200088B
:10014000430200084302000843020008430200087B
:10015000430200084302000843020008430200086B
:10016000430200084302000843020008430200085B
:1001700043020008430200080000000000000000E5
:10018000430200084302000800F002F800F03CF8C7
:100190000AA090E8000C82448344AAF10107DA45E2
:1001A00001D100F031F8AFF2090EBAE80F0013F0F8
:1001B000010F18BFFB1A43F001031847CC1E0000C3
:1001C000EC1E0000103A24BF78C878C1FAD8520754
:1001D00024BF30C830C144BF04680C6070470000C1
:1001E0000023002400250026103A28BF78C1FBD840
:1001F000520728BF30C148BF0B6070471FB501F0E0
:1002000019FF1FBD10B510BD00F0D1F81146FFF762
:10021000F5FF01F09FFE00F0EFF803B4FFF7F2FFE7
:1002200003BC01F05BFE0000094880470948004715
:10023000FEE7FEE7FEE7FEE7FEE7FEE7FEE7FEE796
:10024000FEE7FEE704480549054A064B70470000F3
:100250001D17000889010008B8010020B807002018
:10026000B8030020B8030020704753EA020C00F0E6
:1002700069802DE9F04B4FF00006002B1FBFB3FA49
:1002800083F503FA05F424FA05F65E4012BF16431F
:10029000B2FA82F502FA05F4C5F120051EBF22FA72
:1002A00005FC44EA0C04203556EA044C4FEA144499
:1002B00018BF641C4FF000084FF00009904271EB2A
:1002C000030C39D3002919BFB1FA81F701FA07F6F7
:1002D000B0FA80F700FA07F6C7F120071EBF20FA30
:1002E00007FC46EA0C062037B6FBF4FCA7EB050733
:1002F000103F07F01F0BCBF120060CFA0BFB2CFA7A
:1003000006F644BFB3460026202FA4BF5E464FF03A
:10031000000B5BEA060C08BF4FF0010B19EB0B0951
:10032000ABFB027C48EB0608C01B06FB02CC0BFBB8
:1003300003CC71EB0C01C1E70B460246414648462F
:10034000BDE8F08B13B54FF000004FF00001AFF3A4
:100350000080BDE81C4070474FF0000200B5134616
:1003600094469646203922BFA0E80C50A0E80C50D5
:10037000B1F12001BFF4F7AF090728BFA0E80C5086
:1003800048BF0CC05DF804EB890028BF40F8042B7F
:1003900008BF704748BF20F8022B11F0804F18BFEC
:1003A00000F8012B704770477047704770477546DB
:1003B00000F02CF8AE4605006946534620F00700D1
:1003C000854618B020B5FFF73DFFBDE820404FF04F
:1003D00000064FF000074FF000084FF0000B21F02F
:1003E0000701AC46ACE8C009ACE8C009ACE8C009FC
:1003F000ACE8C0098D46704710B50446AFF30080E5
:100400002046BDE81040FFF708BF000000487047D5
:100410005401002000BFFEE7704770B50446002578
:1004200094F82500022803D00420E063012520E091
:100430002068006820F00E002168086020680068CD
:1004400020F001002168086094F8440000F01C01CD
:1004500001208840216C4860012084F8250000BFFD
:10046000002084F8240000BFA06B10B12046A16BCF
:100470008847284670BD000078B503460022E5E0B5
:10048000012696400D6805EA0604002C7DD04D68D3
:10049000022D02D04D68122D13D1D60803F120058C
:1004A00055F826005507EE0E0F25B540A843560710
:1004B000F60E0D69B5402843D60803F1200545F82E
:1004C0002600186856000325B540A8430D7905F0AD
:1004D00003055600B540284318604D68012D08D02B
:1004E0004D68022D05D04D68112D02D04D68122D9A
:1004F00013D1986856000325B540A8435600CD682F
:10050000B54028439860586801259540A8430D7967
:10051000C5F300159540284358600D7905F0030593
:10052000032D09D1D86A01259540A8430D79C5F35B
:10053000C00595402843D862D86856000325B540C9
:10054000A84356008D68B5402843D8604D6805F033
:100550008055B5F1805F78D100BF3F4D2D6E45F0DD
:1005600001053D4E356635462D6E05F001050095B9
:1005700000BF00BF4FEAB635960855F8260095072C
:100580002E0F0F25B540A84300E05EE0B3F1904F79
:1005900001D100251EE0314DAB4201D1012519E00A
:1005A0002F4DAB4201D1022514E02E4DAB4201D1BB
:1005B00003250FE02C4DAB4201D104250AE02B4D61
:1005C000AB4201D1052505E0294DAB4201D10625FD
:1005D00000E007259607360FB5402843254D9608BD
:1005E00045F82600244D2868A0434D6805F4803561
:1005F000B5F5803F00D120431F4D28602D1D286890
:10060000A0434D6805F40035B5F5003F00D1204307
:10061000194D2D1D28602D1D2868A0434D6805F437
:100620008015B5F5801F00D12043134D0835286093
:100630002D1D2868A0434D6805F40015B5F5001F71
:1006400000D120430C4D0C352860521C0D68D5405C
:10065000002D7FF415AF78BD001002400004004863
:1006600000080048000C0048001000480014004832
:100670000018004808000140000401400AB18161EF
:1006800000E0816270470000014800687047000088
:100690001000002002480068401C014908607047B3
:1006A0001000002010B50024032000F073F80F2084
:1006B00000F008F808B1012401E000F01BF8204622
:1006C00010BD000070B504460025094800684FF4CD
:1006D0007A71B0FBF1F6304600F04CFD08B101250F
:1006E00004E000222146501E00F012F8284670BD9A
:1006F0000C000020704700BF00F01F020121914054
:100700004209920002F1E022C2F8001100BF7047D6
:100710002DE9F05F80460D461646002700F046FFA3
:10072000074639462A46334601F00700C0F1070A5A
:10073000BAF1040F02D94FF0040A01E0C0F1070A30
:10074000D14600F1040ABAF1070F02D24FF0000AB5
:1007500001E0A0F1030AD4464FF0010A0AFA09FAAF
:10076000AAF1010A0AEA020A0AFA0CFA4FF0010B8E
:100770000BFA0CFBABF1010B0BEA030B4AEA0B047F
:100780002146404600F01AFF00F000B830BCBDE83A
:10079000C09F000000BF00F00702064B19684FF62B
:1007A000FF031940044B0B4343EA0221014B19603C
:1007B00000BF70470CED00E00000FA050246B2F5FC
:1007C000007F2AD11D48006800F4C060B0F5007FAA
:1007D00032D01A48006820F4C06040F40070174B13
:1007E00018601748006832235843164BB0FBF3F0EB
:1007F000411C00E0491E1148406900F48060B0F5DA
:10080000806F01D10029F5D10C48406900F4806067
:10081000B0F5806F10D1032070470848006800F4DD
:10082000C060B0F5806F07D00448006820F4C06055
:1008300040F48060014B18600020EDE7007000403C
:100840000C00002040420F000248006800F4C06025
:1008500070470000007000402DE9F04104460D464D
:1008600014B90120BDE8F0815548006800F0070088
:10087000A8420ED25248006820F007002843504991
:1008800008600846006800F00700A84201D0012077
:10089000E8E7207800F00100002840D060680328D5
:1008A00006D14848006800F00070D8B90120D9E7A7
:1008B0006068022806D14348006800F4003088B917
:1008C0000120CFE7606830B93E48006800F00200C0
:1008D00040B90120C6E73B48006800F4806008B9D1
:1008E0000120BFE73748806820F0030061680843B3
:1008F00034498860FFF7C8FE064608E0FFF7C4FEEB
:10090000801B41F28831884201D90320AAE72D4893
:10091000806800F00C006168B0EB810FEED12078A8
:1009200000F00200022807D12648806820F0F0007D
:10093000A1680843234988602148006800F0070047
:10094000A8420ED91E48006820F0070028431C4921
:1009500008600846006800F00700A84201D00120A6
:1009600080E7207800F00400042807D1154880684B
:1009700020F4E060E168084312498860207800F0C4
:100980000800082808D10F48806820F460502169C9
:1009900040EAC1000B49886000F044F809498968C1
:1009A000C1F30311084A515C01F01F01C840074917
:1009B00008600F20FFF786FE0746384652E7000022
:1009C0000020024000100240402000080C000020DF
:1009D00001480068704700000C00002000B5FFF7D8
:1009E000F7FF05498968C1F30221044A515C01F00F
:1009F0001F01C84000BD0000001002405020000848
:100A000000B5FFF7E5FF05498968C1F3C221044A33
:100A1000515C01F01F01C84000BD00000010024001
:100A2000502000082DE9F04100240020DFF800C12B
:100A3000DCF808C00CF00C01DFF8F4C0DCF80CC0E6
:100A40000CF0030719B10C291ED1012F1CD1DFF8BE
:100A5000E0C0DCF800C00CF0080CBCF1000F06D1BF
:100A6000DFF8CCC0DCF894C0CCF3032405E0DFF859
:100A7000C0C0DCF800C0CCF30314DFF8B8C05CF8E9
:100A8000244041B9204606E0042901D12A4802E069
:100A9000082900D129480C2947D1DFF894C0DCF897
:100AA0000CC00CF00305DFF888C0DCF80CC0CCF3F8
:100AB000021C0CF10103012D1FD0022D02D0032DC9
:100AC0001AD10CE0DFF870C0BCFBF3FCDFF86080EB
:100AD000D8F80C80C8F306280CFB08F218E0DFF801
:100AE0005CC0BCFBF3FCDFF84880D8F80C80C8F38E
:100AF00006280CFB08F20BE000BFB4FBF3FCDFF8A8
:100B00003080D8F80C80C8F306280CFB08F200BF30
:100B100000BFDFF81CC0DCF80CC0CCF3416C0CF15A
:100B2000010C4FEA4C06B2FBF6F0BDE8F081000084
:100B300000100240582000080024F40000127A003F
:100B40002DE9F843044614B90120BDE8F883F848BC
:100B5000806800F00C06F648C06800F003072078B3
:100B600000F01000102875D11EB10C2E74D1012F89
:100B700072D1EF48006800F0020018B1A06908B90E
:100B80000120E2E7EA48216A006800F0080020B18D
:100B9000E748006800F0F00005E0E54894300068A0
:100BA00000F47060000981421FD9206A00F01CFD2A
:100BB00008B10120C9E700BFDD48006840F0080027
:100BC000DB4908600846006820F0F000216A08430D
:100BD000D749086000BF0846406820F47F40E169BB
:100BE00040EA0120D24948601EE000BFD0480068BA
:100BF00040F00800CE4908600846006820F0F00088
:100C0000216A0843CA49086000BF0846406820F4CA
:100C10007F40E16940EA0120C5494860206A00F050
:100C2000E3FC08B1012090E7FFF7FCFEC0498968AA
:100C3000C1F30311BF4A515C01F01F01C840BE4916
:100C400008600F20FFF73EFD8046B8F1000F4ED040
:100C500040467AE74BE0FFE7A06980B3B4480068FC
:100C600040F00100B2490860FFF70EFD054606E0BE
:100C7000FFF70AFD401B022801D9032065E7AC48B5
:100C8000006800F002000028F2D000BFA848006809
:100C900040F00800A64908600846006820F0F0000F
:100CA000216A0843A249086000BF0846406820F452
:100CB0007F40E16940EA01209D49486017E0FFE775
:100CC0009B48006820F0010099490860FFF7DCFCB0
:100CD000054606E0FFF7D8FC401B022801D9032097
:100CE00033E79348006800F002000028F2D1207832
:100CF00000F0010000285CD0082E03D00C2E0AD191
:100D0000032F08D18A48006800F4003088B3606877
:100D100078BB012019E700BF6068B0F5803F06D1BD
:100D20008348006840F48030814908601AE06068B8
:100D3000B0F5A02F0BD17E48006840F480207C499C
:100D400008600846006840F4803008600AE078488F
:100D5000006820F48030764908600846006820F476
:100D60008020086000BF606890B1FFF78DFC0546E9
:100D700007E01EE0FFF788FC401B642801D9032030
:100D8000E3E66B48006800F400300028F2D010E081
:100D9000FFF77AFC054606E0FFF776FC401B642867
:100DA00001D90320D1E66248006800F40030002831
:100DB000F2D1207800F00200022852D1042E03D094
:100DC0000C2E14D1022F12D15948006800F4806013
:100DD00018B1E06808B90120B7E65548406820F02E
:100DE000F850217C40EA01605149486039E0E068F0
:100DF00000B34F48006840F480704D490860FFF729
:100E000043FC054606E0FFF73FFC401B022801D9E2
:100E100003209AE64648006800F480600028F2D07B
:100E20004348406820F0F850217C40EA0160404986
:100E3000486016E03E48006820F480703C49086035
:100E4000FFF722FC054606E0FFF71EFC401B0228C8
:100E500001D9032079E63648006800F48060002854
:100E6000F2D1207800F00800082836D16069D0B1AE
:100E70002F489430006840F001002D49C1F89400DB
:100E8000FFF702FC054606E0FFF7FEFB401B0228C9
:100E900001D9032059E626489430006800F002008A
:100EA0000028F1D019E022489430006820F00100B9
:100EB0001F49C1F89400FFF7E7FB054606E0FFF77E
:100EC000E3FB401B022801D903203EE6184894307A
:100ED000006800F002000028F1D1207800F0040042
:100EE000042870D14FF000091148806D00F0805047
:100EF00078B900BF0E48806D40F080500C4988657D
:100F00000846806D00F08050009000BF00BF4FF099
:100F100001090A48006800F48070F0B907480068C9
:100F200040F4807005490860FFF7AEFB05460EE00F
:100F300000100240402000080C000020007000401B
:100F4000FFF7A2FB401B022801D90320FDE57C48E6
:100F5000006800F480700028F2D000BFA06801286B
:100F600008D17848006840F0010076499039C1F80E
:100F7000900021E0A06805280FD17248006840F079
:100F8000040070499039C1F890000846D0F89000EC
:100F900040F00100C1F890000EE06A48006820F0BF
:100FA000010068499039C1F890000846D0F89000D7
:100FB00020F00400C1F8900000BFA068A0B1FFF7C6
:100FC00063FB054609E02EE0FFF75EFB401B41F2A4
:100FD0008831884201D90320B7E55A48006800F0FB
:100FE00002000028F0D012E0FFF74EFB054608E0B3
:100FF000FFF74AFB401B41F28831884201D90320A8
:10100000A3E55048006800F002000028F0D1B9F1D3
:10101000010F07D14B489038806D20F0805049492E
:101020009039886500BFA06AF0B30C2E74D0A06A16
:10103000022853D143489038006820F0807041491D
:1010400090390860FFF720FB054606E0FFF71CFB20
:10105000401B022801D9032077E53A489038006800
:1010600000F000700028F1D1206B401E0101606B80
:1010700041EA0021A06B000941EA4040E16A0843CF
:10108000A18F0122C2EB510140EA41514020005D95
:10109000C2EB500041EA40602A499039C8600846D6
:1010A000006840F0807000E048E008600846C068D2
:1010B00040F08070C860FFF7E7FA054606E0FFF7EA
:1010C000E3FA401B022801D903203EE51D48903871
:1010D000006800F000700028F1D02FE01948903827
:1010E000006820F080701749903908600846006851
:1010F00000F0205020B90846C06820F00300C86006
:1011000010489038C068104908400E499039C860AE
:10111000FFF7BAFA054607E00EE0FFF7B5FA401B05
:10112000022801D9032010E506489038006800F035
:1011300000700028F1D101E0012006E5002004E55F
:101140000070004090100240FFFFEEFE042808D11E
:101150004FF0E021096941F004014FF0E0221161F4
:1011600007E04FF0E021096921F004014FF0E0228F
:101170001161704770B504462546681EB0F1807F46
:1011800001D301200FE0681E4FF0E02148610F21DC
:101190004FF0FF3000F012FA00204FF0E02188619C
:1011A00007200861002070BD704770472DE9F041AD
:1011B00004462068C569206806682068876805F0CD
:1011C0000F08B8F1000F0CD105F0200048B106F06F
:1011D000200030B1206E10B12046216E8847BDE856
:1011E000F081B8F1000F7FD007F0010018B906F4C4
:1011F0009070002878D005F0010048B106F48070A6
:1012000030B1012021680862606F40F00100606722
:1012100005F0020048B107F0010030B1022021685A
:101220000862606F40F00400606705F0040048B198
:1012300007F0010030B1042021680862606F40F0BF
:101240000200606705F0080060B106F0200010B9E8
:1012500007F0010030B1082021680862606F40F09B
:1012600008006067606F78B305F0200038B106F0C1
:10127000200020B1206E10B12046216E8847606F9B
:1012800000F0080028B92068806800F0400040287D
:1012900024D1204600F02CFB2068806800F040003C
:1012A000402817D12068806820F0400021688860BD
:1012B000E06E58B11F48E16E8863E06EFFF7ADF84D
:1012C00010B1E06E816B88470DE00DE02046FFF71E
:1012D0006CFF08E02046FFF768FF04E02046FFF7B8
:1012E00064FF002060677AE705F4801050B107F4CE
:1012F000800038B14FF48010216808622046FFF763
:1013000053FF6CE705F0800040B106F0800028B183
:10131000606E10B12046616E884760E705F04000BE
:1013200030B106F0400018B1204600F0F3FA56E75D
:1013300000BF54E7D918000810B504460CB90120C5
:1013400010BDA06900B100E000BF94F8710028B999
:10135000002084F87000204600F02AF8242084F849
:1013600071002068006820F00100216808602046B4
:1013700000F0E2FA012800D1E2E7606A10B12046ED
:1013800000F0F4F92068406820F49040216848603B
:101390002068806820F02A00216888602068006842
:1013A00040F0010021680860204600F05BFAC7E7C2
:1013B00010B586B004461C492068884231D100BF70
:1013C0001A48C06C40F001001849C8640846C06C57
:1013D00000F00100009000BF00BF00BF0846006E93
:1013E00040F4804008660846006E00F4804000909B
:1013F00000BF00BF48150190022002900120039019
:10140000022004900720059001A94FF09040FFF7BB
:1014100033F84FF48060019001A94FF09040FFF73E
:101420002BF806B010BD000000380140001002404B
:101430002DE9F84F04460D46164699464FF0000A2E
:1014400094F87200202879D105B116B9012000F076
:1014500077B800BF94F87000012801D10220F6E7A8
:10146000012084F8700000BF00205834E061222081
:10147000A076FFF709F9824626806680583C00BFB7
:10148000A068B0F5805F0AD1206920B940F2FF1052
:10149000A4F85C001CE0FF20A4F85C0018E0A06841
:1014A00048B9206918B9FF20A4F85C0010E07F203B
:1014B000A4F85C000CE0A068B0F1805F08D120695E
:1014C00018B97F20A4F85C0002E03F20A4F85C007B
:1014D00000BFB4F85C7023E0534600222021204670
:1014E000CDF8009000F071FC08B10320AFE7A068D0
:1014F000B0F5805F09D1206938B9A8462068808C92
:101500003840A8F80000AD1C05E02068808CF9B2D6
:10151000084005F8010BB4F85A00401EA4F85A0020
:10152000B4F85A000028D7D1202084F8720000BFF8
:10153000002084F8700000BF89E7FFE7022086E7FB
:1015400018BCBDE8E08F704700BFFEE700B587B06C
:10155000142102A8FEF700FF00BF1048C06C40F045
:1015600010000E49C8640846C06C00F010000190DD
:1015700000BF00BF01224FF460710948FFF77EF8F9
:101580004FF46070029001200390049002200590B7
:1015900002A90348FEF770FF07B000BD001002402B
:1015A0000010004800BFFEE77047000002480068D6
:1015B000C0F30220704700000CED00E010B50028D9
:1015C00007DA0A07140E054A00F00F031B1FD45454
:1015D00003E00A07130E024A135410BD18ED00E091
:1015E00000E400E070470000F8B5044600262348F8
:1015F000806D00F0805018B1FFF726F9054616E01F
:1016000000BF1E48806D40F080501C498865084628
:10161000806D00F08050009000BF00BFFFF714F90C
:1016200005461648806D20F0805014498865B5F550
:10163000007F07D1802C10D9A02C01D902260CE004
:1016400001260AE0802C01D9032606E0802C01D176
:10165000022602E0702C00D101260948006820F023
:1016600007003043064908600846006800F007009C
:10167000B04201D00120F8BD0020FCE7001002407C
:1016800000200240704710B5FFF704F810BD0000BD
:1016900010B598B0002400BF1F48806D40F0805006
:1016A0001D4988650846806D00F08050019000BF9C
:1016B00000BF012007900004089002201190032130
:1016C00012910121139114211491072115910221E6
:1016D0001691179107A8FFF733FA04460CB100BF23
:1016E000FEE70F2002900320039000200490059055
:1016F0000690042102A8FFF7AFF804460CB100BF22
:10170000FEE74FF40070FFF759F804460CB100BF34
:10171000FEE718B010BD000000100240104800683D
:1017200040F470000E4908600E48006840F0010067
:101730000C49086000208860084600680A49084093
:10174000084908608814C8600846006820F48020B2
:10175000086000208861C80301498039086070472B
:1017600088ED00E000100240FFFFF6EA90F8241038
:1017700001F0010139B10168496821F40031826A40
:1017800011430268516090F8241001F0020102290F
:1017900007D10168496821F48031C26A11430268A7
:1017A000516090F8241001F00401042907D1016868
:1017B000496821F48021026B11430268516090F85E
:1017C000241001F00801082907D10168496821F4B3
:1017D0000041426B11430268516090F8241001F0FF
:1017E0001001102907D10168896821F48051826BAA
:1017F00011430268916090F8241001F02001202923
:1018000007D10168896821F40051C26B1143026855
:10181000916090F8241001F04001402913D1016833
:10182000496821F48011026C114302685160016C17
:10183000B1F5801F07D10168496821F4C001426CED
:1018400011430268516090F8241001F08001802952
:1018500007D10168496821F40021826C11430268B4
:101860005160704738B50446002500206067FEF7D8
:101870000BFF05462068006800F0080008280CD11E
:101880006FF07E402B4600224FF40011009020465E
:1018900000F09BFA08B1032038BD2068006800F012
:1018A000040004280CD16FF07E402B4600224FF438
:1018B00080010090204600F088FA08B10320EBE791
:1018C000202084F8710084F8720000BF002084F8A2
:1018D000700000BF00BFDFE770B50546AC6A0020AE
:1018E000A4F85A00A4F852002046FFF75EFC70BD31
:1018F0000168096821F490710268116001688968C3
:1019000021F0010102689160202180F8721000210D
:101910000166704710B504462068006820F040005A
:1019200021680860202084F871000020606620464D
:10193000FFF709FE10BD00002DE9F84F04464FF0F7
:10194000000910264FF0000B002500200090824671
:10195000F7492068884200D100E000BF2169A068F3
:10196000084361690843E16940EA010920680068A9
:10197000F049084040EA0900216808602068406892
:1019800020F44050E168084321684860D4F818907A
:10199000E7492068884202D0206A40EA09092068A5
:1019A000806820F4306040EA09002168886000BF48
:1019B000E1492068884216D1E048006800F0030041
:1019C00030B1012808D0022804D0032808D105E04E
:1019D000012607E0022605E0042603E0082601E0D0
:1019E000102600BF8CE0D6492068884216D1D34823
:1019F000006800F00C0030B1042808D0082804D09A
:101A00000C2808D105E0002607E0022605E00426A0
:101A100003E0082601E0102600BF71E0C9492068F4
:101A2000884216D1C548006800F0300030B1102857
:101A300008D0202804D0302808D105E0002607E08F
:101A4000022605E0042603E0082601E0102600BF78
:101A500056E0BD492068884216D1B848006800F0B9
:101A6000C00030B1402808D0802804D0C02808D158
:101A700005E0002607E0022605E0042603E008262C
:101A800001E0102600BF3BE0B0492068884219D130
:101A9000AA48006800F4407048B1B0F5807F0AD0D1
:101AA000B0F5007F05D0B0F5407F08D105E00026F5
:101AB00007E0022605E0042603E0082601E01026E0
:101AC00000BF1DE09A492068884219D19B480068F0
:101AD00000F4406048B1B0F5806F0AD0B0F5006FF7
:101AE00005D0B0F5406F08D105E0002607E00226DA
:101AF00005E0042603E0082601E0102600BF00BF31
:101B000000BF8B492068884272D1042E10D003DCBC
:101B10003EB1022E13D108E0082E0DD0102E0ED1AA
:101B20000EE0FEF75BFF82460DE0DFF824A20AE03C
:101B3000FEF778FF824606E04FF4004A03E000BF5C
:101B40000120009000BF00BFBAF1000F0AD060680A
:101B500000EB4000504503D860680003504502D2B6
:101B60000120009025E1042E2ED003DC3EB1022E90
:101B700051D118E0082E3CD0102E4CD14CE0FEF78D
:101B80002DFF4FF48071A0FB0131606840081F18E1
:101B900041F10001D4F804C0624600233846FEF744
:101BA00064FB05463BE0D4F804C04FEA5C0000212A
:101BB000684BC71841EB010862460B463846414660
:101BC000FEF753FB05462AE0FEF72CFF4FF4807129
:101BD000A0FB0130616849085F1840F10001D4F8AA
:101BE00004C0624600233846FEF73FFB054616E078
:101BF00022E0D4F804C04FEA5C0000214FF4000357
:101C0000C71841EB010862460B4638464146FEF7CD
:101C10002CFB054603E000BF0120009000BF00BF81
:101C2000B5F5407F05D3B5F5801F02D22068C560A9
:101C3000BFE001200090BCE0E069B0F5004F57D153
:101C4000042E28D005DC4EB1012E11D0022E36D143
:101C500018E0082E29D0102E31D131E0FEF7BEFE5B
:101C60004000616800EB5100B0FBF1F085B22AE062
:101C7000FEF7C6FE4000616800EB5100B0FBF1F0DA
:101C800085B220E03449606801EB50006168B0FB28
:101C9000F1F085B217E0FEF7C5FE4000616800EB89
:101CA0005100B0FBF1F085B20DE04FF48031606877
:101CB00001EB50006168B0FBF1F085B203E000BFBA
:101CC0000120009000BF00BF102D0ED3B5F5803F5E
:101CD0000BD24FF6F07005EA000BC5F342004BEA59
:101CE000000B2068C0F80CB063E00120009060E0B9
:101CF000042E3CD005DC4EB1012E10D0022E49D16D
:101D00002CE0082E3CD0102E44D144E0FEF766FEB5
:101D1000616800EB5100B0FBF1F085B23EE0FEF7E8
:101D20006FFE616800EB5100B0FBF1F085B235E069
:101D300000800040F369FFEF003801408810024046
:101D40000044004000480040004C0040005000406B
:101D50000024F400000024F40048E80118496068F9
:101D600001EB50006168B0FBF1F085B216E0FEF7C0
:101D700059FE616800EB5100B0FBF1F085B20DE057
:101D80004FF40041606801EB50006168B0FBF1F076
:101D900085B203E000BF0120009000BF00BF102DFE
:101DA00005D3B5F5803F02D22068C56001E001206F
:101DB0000090002020666066009800F003B80000E4
:101DC0000024F40018BCBDE8E08F2DE9F041044682
:101DD0000D4617469846069E21E0701CF8B12EB1BC
:101DE000FEF752FCA0EB0800B04218D9206800684A
:101DF00020F4D070216808602068806820F001001D
:101E000021688860202084F8710084F8720000BF87
:101E1000002084F8700000BF0320BDE8F081206836
:101E2000C0692840A84201D1012000E00020B8424A
:101E3000D3D00020F1E7000008B524480068C0694D
:101E4000C0F3401048B34FF47A73012269461F482B
:101E5000FFF7EEFA1E48008800F40040E8B91C487D
:101E6000008800F4804070B19DF800000A2803D07B
:101E700000201749088024E01548008840F40040FD
:101E8000134908801DE09DF800000D2806D1104878
:101E9000008840F480400E49088012E09DF8000060
:101EA0000B490988C1F30D010A4A505408480088BB
:101EB000401C0749088008460088C72801DD00202B
:101EC00008800248FFF772F908BD0000DC0000201E
:101ED000080000201400002000BFFEE700BF70478C
:101EE00010B504460420FFF731F90148046010BD25
:101EF0000000002030B50446002504E04FF47A705D
:101F000000F004F86D1CA542F8D330BD70B503464F
:101F100000224FF0E02675690D4E366803FB06F48B
:101F20004FF0E026B16910E04FF0E026B06988423A
:101F30000BD0884202D20E1A324402E02E1A0E440E
:101F400032440146A24200D300E0EDE700BF70BD7D
:101F500000000020FEF7A6FBFFF79AFB5020FFF7DA
:101F6000BFFF4FF4E13000F03FF8FFF7EFFA37E042
:101F7000002280211B48FEF781FB4FF4FA70FFF727
:101F8000B9FF012280211748FEF778FB4FF4FA7061
:101F9000FFF7B0FF00224FF400711248FEF76EFB0E
:101FA0004FF4FA70FFF7A6FF012251020D48FEF729
:101FB00065FB4FF4FA70FFF79DFF00224FF480712C
:101FC0000848FEF75BFB4FF4FA70FFF793FF01221E
:101FD00011020448FEF752FB4FF4FA70FFF78AFF34
:101FE000C6E700000010004810B504460F4810492D
:101FF00008600846446000218160C1600161816120
:102000000C214161FFF798F909480068006840F029
:1020100020000749096808602520FEF76CFB0322B1
:1020200011462520FEF774FB10BD0000003801406A
:10203000DC0000204FF04070E1EE100A7047000015
:102040000000000000000000010203040607080968
:102050000000000001020304A0860100400D0300FF
:10206000801A060000350C0040420F0080841E00DC
:1020700000093D0000127A000024F40000366E01D1
:102080000048E801006CDC02A820000800000020E5
:1020900014000000C4010008BC2000081400002047
:1020A000A4070000E001000800000000000000009C
:0C20B0000000000000093D0000000000DE
:040000050800018965
:00000001FF
